{
	"Solidity/Solidity_Basics/4.DataExample.sol": {
		"DataExample": {
			"abi": [
				{
					"inputs": [],
					"name": "getCallDataSize",
					"outputs": [
						{
							"internalType": "uint256",
							"name": "",
							"type": "uint256"
						}
					],
					"stateMutability": "view",
					"type": "function"
				},
				{
					"inputs": [],
					"name": "lastCallData",
					"outputs": [
						{
							"internalType": "bytes",
							"name": "",
							"type": "bytes"
						}
					],
					"stateMutability": "view",
					"type": "function"
				},
				{
					"inputs": [],
					"name": "recordCallData",
					"outputs": [],
					"stateMutability": "nonpayable",
					"type": "function"
				}
			],
			"devdoc": {
				"kind": "dev",
				"methods": {},
				"version": 1
			},
			"evm": {
				"assembly": "    /* \"Solidity/Solidity_Basics/4.DataExample.sol\":59:412  contract DataExample {... */\n  mstore(0x40, 0x80)\n  callvalue\n  dup1\n  iszero\n  tag_1\n  jumpi\n  0x00\n  dup1\n  revert\ntag_1:\n  pop\n  dataSize(sub_0)\n  dup1\n  dataOffset(sub_0)\n  0x00\n  codecopy\n  0x00\n  return\nstop\n\nsub_0: assembly {\n        /* \"Solidity/Solidity_Basics/4.DataExample.sol\":59:412  contract DataExample {... */\n      mstore(0x40, 0x80)\n      callvalue\n      dup1\n      iszero\n      tag_1\n      jumpi\n      0x00\n      dup1\n      revert\n    tag_1:\n      pop\n      jumpi(tag_2, lt(calldatasize, 0x04))\n      shr(0xe0, calldataload(0x00))\n      dup1\n      0x0b91271f\n      eq\n      tag_3\n      jumpi\n      dup1\n      0x31018e41\n      eq\n      tag_4\n      jumpi\n      dup1\n      0x72a853b1\n      eq\n      tag_5\n      jumpi\n    tag_2:\n      0x00\n      dup1\n      revert\n        /* \"Solidity/Solidity_Basics/4.DataExample.sol\":182:257  function recordCallData() public {... */\n    tag_3:\n      tag_6\n      tag_7\n      jump\t// in\n    tag_6:\n      stop\n        /* \"Solidity/Solidity_Basics/4.DataExample.sol\":307:409  function getCallDataSize() public view returns (uint256) {... */\n    tag_4:\n      tag_8\n      tag_9\n      jump\t// in\n    tag_8:\n      mload(0x40)\n      tag_10\n      swap2\n      swap1\n      tag_11\n      jump\t// in\n    tag_10:\n      mload(0x40)\n      dup1\n      swap2\n      sub\n      swap1\n      return\n        /* \"Solidity/Solidity_Basics/4.DataExample.sol\":87:112  bytes public lastCallData */\n    tag_5:\n      tag_12\n      tag_13\n      jump\t// in\n    tag_12:\n      mload(0x40)\n      tag_14\n      swap2\n      swap1\n      tag_15\n      jump\t// in\n    tag_14:\n      mload(0x40)\n      dup1\n      swap2\n      sub\n      swap1\n      return\n        /* \"Solidity/Solidity_Basics/4.DataExample.sol\":182:257  function recordCallData() public {... */\n    tag_7:\n        /* \"Solidity/Solidity_Basics/4.DataExample.sol\":241:249  msg.data */\n      0x00\n      calldatasize\n        /* \"Solidity/Solidity_Basics/4.DataExample.sol\":226:238  lastCallData */\n      0x00\n        /* \"Solidity/Solidity_Basics/4.DataExample.sol\":226:249  lastCallData = msg.data */\n      swap2\n      dup3\n      tag_17\n      swap3\n      swap2\n      swap1\n      tag_18\n      jump\t// in\n    tag_17:\n      pop\n        /* \"Solidity/Solidity_Basics/4.DataExample.sol\":182:257  function recordCallData() public {... */\n      jump\t// out\n        /* \"Solidity/Solidity_Basics/4.DataExample.sol\":307:409  function getCallDataSize() public view returns (uint256) {... */\n    tag_9:\n        /* \"Solidity/Solidity_Basics/4.DataExample.sol\":355:362  uint256 */\n      0x00\n        /* \"Solidity/Solidity_Basics/4.DataExample.sol\":382:394  lastCallData */\n      dup1\n        /* \"Solidity/Solidity_Basics/4.DataExample.sol\":382:401  lastCallData.length */\n      dup1\n      sload\n      tag_20\n      swap1\n      tag_21\n      jump\t// in\n    tag_20:\n      swap1\n      pop\n        /* \"Solidity/Solidity_Basics/4.DataExample.sol\":375:401  return lastCallData.length */\n      swap1\n      pop\n        /* \"Solidity/Solidity_Basics/4.DataExample.sol\":307:409  function getCallDataSize() public view returns (uint256) {... */\n      swap1\n      jump\t// out\n        /* \"Solidity/Solidity_Basics/4.DataExample.sol\":87:112  bytes public lastCallData */\n    tag_13:\n      0x00\n      dup1\n      sload\n      tag_22\n      swap1\n      tag_21\n      jump\t// in\n    tag_22:\n      dup1\n      0x1f\n      add\n      0x20\n      dup1\n      swap2\n      div\n      mul\n      0x20\n      add\n      mload(0x40)\n      swap1\n      dup2\n      add\n      0x40\n      mstore\n      dup1\n      swap3\n      swap2\n      swap1\n      dup2\n      dup2\n      mstore\n      0x20\n      add\n      dup3\n      dup1\n      sload\n      tag_23\n      swap1\n      tag_21\n      jump\t// in\n    tag_23:\n      dup1\n      iszero\n      tag_24\n      jumpi\n      dup1\n      0x1f\n      lt\n      tag_25\n      jumpi\n      0x0100\n      dup1\n      dup4\n      sload\n      div\n      mul\n      dup4\n      mstore\n      swap2\n      0x20\n      add\n      swap2\n      jump(tag_24)\n    tag_25:\n      dup3\n      add\n      swap2\n      swap1\n      0x00\n      mstore\n      keccak256(0x00, 0x20)\n      swap1\n    tag_26:\n      dup2\n      sload\n      dup2\n      mstore\n      swap1\n      0x01\n      add\n      swap1\n      0x20\n      add\n      dup1\n      dup4\n      gt\n      tag_26\n      jumpi\n      dup3\n      swap1\n      sub\n      0x1f\n      and\n      dup3\n      add\n      swap2\n    tag_24:\n      pop\n      pop\n      pop\n      pop\n      pop\n      dup2\n      jump\t// out\n        /* \"#utility.yul\":7:84   */\n    tag_27:\n        /* \"#utility.yul\":44:51   */\n      0x00\n        /* \"#utility.yul\":73:78   */\n      dup2\n        /* \"#utility.yul\":62:78   */\n      swap1\n      pop\n        /* \"#utility.yul\":7:84   */\n      swap2\n      swap1\n      pop\n      jump\t// out\n        /* \"#utility.yul\":90:208   */\n    tag_28:\n        /* \"#utility.yul\":177:201   */\n      tag_55\n        /* \"#utility.yul\":195:200   */\n      dup2\n        /* \"#utility.yul\":177:201   */\n      tag_27\n      jump\t// in\n    tag_55:\n        /* \"#utility.yul\":172:175   */\n      dup3\n        /* \"#utility.yul\":165:202   */\n      mstore\n        /* \"#utility.yul\":90:208   */\n      pop\n      pop\n      jump\t// out\n        /* \"#utility.yul\":214:436   */\n    tag_11:\n        /* \"#utility.yul\":307:311   */\n      0x00\n        /* \"#utility.yul\":345:347   */\n      0x20\n        /* \"#utility.yul\":334:343   */\n      dup3\n        /* \"#utility.yul\":330:348   */\n      add\n        /* \"#utility.yul\":322:348   */\n      swap1\n      pop\n        /* \"#utility.yul\":358:429   */\n      tag_57\n        /* \"#utility.yul\":426:427   */\n      0x00\n        /* \"#utility.yul\":415:424   */\n      dup4\n        /* \"#utility.yul\":411:428   */\n      add\n        /* \"#utility.yul\":402:408   */\n      dup5\n        /* \"#utility.yul\":358:429   */\n      tag_28\n      jump\t// in\n    tag_57:\n        /* \"#utility.yul\":214:436   */\n      swap3\n      swap2\n      pop\n      pop\n      jump\t// out\n        /* \"#utility.yul\":442:540   */\n    tag_29:\n        /* \"#utility.yul\":493:499   */\n      0x00\n        /* \"#utility.yul\":527:532   */\n      dup2\n        /* \"#utility.yul\":521:533   */\n      mload\n        /* \"#utility.yul\":511:533   */\n      swap1\n      pop\n        /* \"#utility.yul\":442:540   */\n      swap2\n      swap1\n      pop\n      jump\t// out\n        /* \"#utility.yul\":546:714   */\n    tag_30:\n        /* \"#utility.yul\":629:640   */\n      0x00\n        /* \"#utility.yul\":663:669   */\n      dup3\n        /* \"#utility.yul\":658:661   */\n      dup3\n        /* \"#utility.yul\":651:670   */\n      mstore\n        /* \"#utility.yul\":703:707   */\n      0x20\n        /* \"#utility.yul\":698:701   */\n      dup3\n        /* \"#utility.yul\":694:708   */\n      add\n        /* \"#utility.yul\":679:708   */\n      swap1\n      pop\n        /* \"#utility.yul\":546:714   */\n      swap3\n      swap2\n      pop\n      pop\n      jump\t// out\n        /* \"#utility.yul\":720:966   */\n    tag_31:\n        /* \"#utility.yul\":801:802   */\n      0x00\n        /* \"#utility.yul\":811:924   */\n    tag_61:\n        /* \"#utility.yul\":825:831   */\n      dup4\n        /* \"#utility.yul\":822:823   */\n      dup2\n        /* \"#utility.yul\":819:832   */\n      lt\n        /* \"#utility.yul\":811:924   */\n      iszero\n      tag_63\n      jumpi\n        /* \"#utility.yul\":910:911   */\n      dup1\n        /* \"#utility.yul\":905:908   */\n      dup3\n        /* \"#utility.yul\":901:912   */\n      add\n        /* \"#utility.yul\":895:913   */\n      mload\n        /* \"#utility.yul\":891:892   */\n      dup2\n        /* \"#utility.yul\":886:889   */\n      dup5\n        /* \"#utility.yul\":882:893   */\n      add\n        /* \"#utility.yul\":875:914   */\n      mstore\n        /* \"#utility.yul\":847:849   */\n      0x20\n        /* \"#utility.yul\":844:845   */\n      dup2\n        /* \"#utility.yul\":840:850   */\n      add\n        /* \"#utility.yul\":835:850   */\n      swap1\n      pop\n        /* \"#utility.yul\":811:924   */\n      jump(tag_61)\n    tag_63:\n        /* \"#utility.yul\":958:959   */\n      0x00\n        /* \"#utility.yul\":949:955   */\n      dup5\n        /* \"#utility.yul\":944:947   */\n      dup5\n        /* \"#utility.yul\":940:956   */\n      add\n        /* \"#utility.yul\":933:960   */\n      mstore\n        /* \"#utility.yul\":782:966   */\n      pop\n        /* \"#utility.yul\":720:966   */\n      pop\n      pop\n      pop\n      jump\t// out\n        /* \"#utility.yul\":972:1074   */\n    tag_32:\n        /* \"#utility.yul\":1013:1019   */\n      0x00\n        /* \"#utility.yul\":1064:1066   */\n      0x1f\n        /* \"#utility.yul\":1060:1067   */\n      not\n        /* \"#utility.yul\":1055:1057   */\n      0x1f\n        /* \"#utility.yul\":1048:1053   */\n      dup4\n        /* \"#utility.yul\":1044:1058   */\n      add\n        /* \"#utility.yul\":1040:1068   */\n      and\n        /* \"#utility.yul\":1030:1068   */\n      swap1\n      pop\n        /* \"#utility.yul\":972:1074   */\n      swap2\n      swap1\n      pop\n      jump\t// out\n        /* \"#utility.yul\":1080:1453   */\n    tag_33:\n        /* \"#utility.yul\":1166:1169   */\n      0x00\n        /* \"#utility.yul\":1194:1232   */\n      tag_66\n        /* \"#utility.yul\":1226:1231   */\n      dup3\n        /* \"#utility.yul\":1194:1232   */\n      tag_29\n      jump\t// in\n    tag_66:\n        /* \"#utility.yul\":1248:1318   */\n      tag_67\n        /* \"#utility.yul\":1311:1317   */\n      dup2\n        /* \"#utility.yul\":1306:1309   */\n      dup6\n        /* \"#utility.yul\":1248:1318   */\n      tag_30\n      jump\t// in\n    tag_67:\n        /* \"#utility.yul\":1241:1318   */\n      swap4\n      pop\n        /* \"#utility.yul\":1327:1392   */\n      tag_68\n        /* \"#utility.yul\":1385:1391   */\n      dup2\n        /* \"#utility.yul\":1380:1383   */\n      dup6\n        /* \"#utility.yul\":1373:1377   */\n      0x20\n        /* \"#utility.yul\":1366:1371   */\n      dup7\n        /* \"#utility.yul\":1362:1378   */\n      add\n        /* \"#utility.yul\":1327:1392   */\n      tag_31\n      jump\t// in\n    tag_68:\n        /* \"#utility.yul\":1417:1446   */\n      tag_69\n        /* \"#utility.yul\":1439:1445   */\n      dup2\n        /* \"#utility.yul\":1417:1446   */\n      tag_32\n      jump\t// in\n    tag_69:\n        /* \"#utility.yul\":1412:1415   */\n      dup5\n        /* \"#utility.yul\":1408:1447   */\n      add\n        /* \"#utility.yul\":1401:1447   */\n      swap2\n      pop\n        /* \"#utility.yul\":1170:1453   */\n      pop\n        /* \"#utility.yul\":1080:1453   */\n      swap3\n      swap2\n      pop\n      pop\n      jump\t// out\n        /* \"#utility.yul\":1459:1768   */\n    tag_15:\n        /* \"#utility.yul\":1570:1574   */\n      0x00\n        /* \"#utility.yul\":1608:1610   */\n      0x20\n        /* \"#utility.yul\":1597:1606   */\n      dup3\n        /* \"#utility.yul\":1593:1611   */\n      add\n        /* \"#utility.yul\":1585:1611   */\n      swap1\n      pop\n        /* \"#utility.yul\":1657:1666   */\n      dup2\n        /* \"#utility.yul\":1651:1655   */\n      dup2\n        /* \"#utility.yul\":1647:1667   */\n      sub\n        /* \"#utility.yul\":1643:1644   */\n      0x00\n        /* \"#utility.yul\":1632:1641   */\n      dup4\n        /* \"#utility.yul\":1628:1645   */\n      add\n        /* \"#utility.yul\":1621:1668   */\n      mstore\n        /* \"#utility.yul\":1685:1761   */\n      tag_71\n        /* \"#utility.yul\":1756:1760   */\n      dup2\n        /* \"#utility.yul\":1747:1753   */\n      dup5\n        /* \"#utility.yul\":1685:1761   */\n      tag_33\n      jump\t// in\n    tag_71:\n        /* \"#utility.yul\":1677:1761   */\n      swap1\n      pop\n        /* \"#utility.yul\":1459:1768   */\n      swap3\n      swap2\n      pop\n      pop\n      jump\t// out\n        /* \"#utility.yul\":1774:1870   */\n    tag_34:\n        /* \"#utility.yul\":1832:1838   */\n      0x00\n        /* \"#utility.yul\":1860:1863   */\n      dup3\n        /* \"#utility.yul\":1850:1863   */\n      swap1\n      pop\n        /* \"#utility.yul\":1774:1870   */\n      swap3\n      swap2\n      pop\n      pop\n      jump\t// out\n        /* \"#utility.yul\":1876:2056   */\n    tag_35:\n        /* \"#utility.yul\":1924:2001   */\n      0x4e487b7100000000000000000000000000000000000000000000000000000000\n        /* \"#utility.yul\":1921:1922   */\n      0x00\n        /* \"#utility.yul\":1914:2002   */\n      mstore\n        /* \"#utility.yul\":2021:2025   */\n      0x41\n        /* \"#utility.yul\":2018:2019   */\n      0x04\n        /* \"#utility.yul\":2011:2026   */\n      mstore\n        /* \"#utility.yul\":2045:2049   */\n      0x24\n        /* \"#utility.yul\":2042:2043   */\n      0x00\n        /* \"#utility.yul\":2035:2050   */\n      revert\n        /* \"#utility.yul\":2062:2242   */\n    tag_36:\n        /* \"#utility.yul\":2110:2187   */\n      0x4e487b7100000000000000000000000000000000000000000000000000000000\n        /* \"#utility.yul\":2107:2108   */\n      0x00\n        /* \"#utility.yul\":2100:2188   */\n      mstore\n        /* \"#utility.yul\":2207:2211   */\n      0x22\n        /* \"#utility.yul\":2204:2205   */\n      0x04\n        /* \"#utility.yul\":2197:2212   */\n      mstore\n        /* \"#utility.yul\":2231:2235   */\n      0x24\n        /* \"#utility.yul\":2228:2229   */\n      0x00\n        /* \"#utility.yul\":2221:2236   */\n      revert\n        /* \"#utility.yul\":2248:2568   */\n    tag_21:\n        /* \"#utility.yul\":2292:2298   */\n      0x00\n        /* \"#utility.yul\":2329:2330   */\n      0x02\n        /* \"#utility.yul\":2323:2327   */\n      dup3\n        /* \"#utility.yul\":2319:2331   */\n      div\n        /* \"#utility.yul\":2309:2331   */\n      swap1\n      pop\n        /* \"#utility.yul\":2376:2377   */\n      0x01\n        /* \"#utility.yul\":2370:2374   */\n      dup3\n        /* \"#utility.yul\":2366:2378   */\n      and\n        /* \"#utility.yul\":2397:2415   */\n      dup1\n        /* \"#utility.yul\":2387:2468   */\n      tag_76\n      jumpi\n        /* \"#utility.yul\":2453:2457   */\n      0x7f\n        /* \"#utility.yul\":2445:2451   */\n      dup3\n        /* \"#utility.yul\":2441:2458   */\n      and\n        /* \"#utility.yul\":2431:2458   */\n      swap2\n      pop\n        /* \"#utility.yul\":2387:2468   */\n    tag_76:\n        /* \"#utility.yul\":2515:2517   */\n      0x20\n        /* \"#utility.yul\":2507:2513   */\n      dup3\n        /* \"#utility.yul\":2504:2518   */\n      lt\n        /* \"#utility.yul\":2484:2502   */\n      dup2\n        /* \"#utility.yul\":2481:2519   */\n      sub\n        /* \"#utility.yul\":2478:2562   */\n      tag_77\n      jumpi\n        /* \"#utility.yul\":2534:2552   */\n      tag_78\n      tag_36\n      jump\t// in\n    tag_78:\n        /* \"#utility.yul\":2478:2562   */\n    tag_77:\n        /* \"#utility.yul\":2299:2568   */\n      pop\n        /* \"#utility.yul\":2248:2568   */\n      swap2\n      swap1\n      pop\n      jump\t// out\n        /* \"#utility.yul\":2574:2714   */\n    tag_37:\n        /* \"#utility.yul\":2622:2626   */\n      0x00\n        /* \"#utility.yul\":2645:2648   */\n      dup2\n        /* \"#utility.yul\":2637:2648   */\n      swap1\n      pop\n        /* \"#utility.yul\":2668:2671   */\n      dup2\n        /* \"#utility.yul\":2665:2666   */\n      0x00\n        /* \"#utility.yul\":2658:2672   */\n      mstore\n        /* \"#utility.yul\":2702:2706   */\n      0x20\n        /* \"#utility.yul\":2699:2700   */\n      0x00\n        /* \"#utility.yul\":2689:2707   */\n      keccak256\n        /* \"#utility.yul\":2681:2707   */\n      swap1\n      pop\n        /* \"#utility.yul\":2574:2714   */\n      swap2\n      swap1\n      pop\n      jump\t// out\n        /* \"#utility.yul\":2720:2813   */\n    tag_38:\n        /* \"#utility.yul\":2757:2763   */\n      0x00\n        /* \"#utility.yul\":2804:2806   */\n      0x20\n        /* \"#utility.yul\":2799:2801   */\n      0x1f\n        /* \"#utility.yul\":2792:2797   */\n      dup4\n        /* \"#utility.yul\":2788:2802   */\n      add\n        /* \"#utility.yul\":2784:2807   */\n      div\n        /* \"#utility.yul\":2774:2807   */\n      swap1\n      pop\n        /* \"#utility.yul\":2720:2813   */\n      swap2\n      swap1\n      pop\n      jump\t// out\n        /* \"#utility.yul\":2819:2926   */\n    tag_39:\n        /* \"#utility.yul\":2863:2871   */\n      0x00\n        /* \"#utility.yul\":2913:2918   */\n      dup3\n        /* \"#utility.yul\":2907:2911   */\n      dup3\n        /* \"#utility.yul\":2903:2919   */\n      shl\n        /* \"#utility.yul\":2882:2919   */\n      swap1\n      pop\n        /* \"#utility.yul\":2819:2926   */\n      swap3\n      swap2\n      pop\n      pop\n      jump\t// out\n        /* \"#utility.yul\":2932:3325   */\n    tag_40:\n        /* \"#utility.yul\":3001:3007   */\n      0x00\n        /* \"#utility.yul\":3051:3052   */\n      0x08\n        /* \"#utility.yul\":3039:3049   */\n      dup4\n        /* \"#utility.yul\":3035:3053   */\n      mul\n        /* \"#utility.yul\":3074:3171   */\n      tag_83\n        /* \"#utility.yul\":3104:3170   */\n      0xffffffffffffffffffffffffffffffffffffffffffffffffffffffffffffffff\n        /* \"#utility.yul\":3093:3102   */\n      dup3\n        /* \"#utility.yul\":3074:3171   */\n      tag_39\n      jump\t// in\n    tag_83:\n        /* \"#utility.yul\":3192:3231   */\n      tag_84\n        /* \"#utility.yul\":3222:3230   */\n      dup7\n        /* \"#utility.yul\":3211:3220   */\n      dup4\n        /* \"#utility.yul\":3192:3231   */\n      tag_39\n      jump\t// in\n    tag_84:\n        /* \"#utility.yul\":3180:3231   */\n      swap6\n      pop\n        /* \"#utility.yul\":3264:3268   */\n      dup1\n        /* \"#utility.yul\":3260:3269   */\n      not\n        /* \"#utility.yul\":3253:3258   */\n      dup5\n        /* \"#utility.yul\":3249:3270   */\n      and\n        /* \"#utility.yul\":3240:3270   */\n      swap4\n      pop\n        /* \"#utility.yul\":3313:3317   */\n      dup1\n        /* \"#utility.yul\":3303:3311   */\n      dup7\n        /* \"#utility.yul\":3299:3318   */\n      and\n        /* \"#utility.yul\":3292:3297   */\n      dup5\n        /* \"#utility.yul\":3289:3319   */\n      or\n        /* \"#utility.yul\":3279:3319   */\n      swap3\n      pop\n        /* \"#utility.yul\":3008:3325   */\n      pop\n      pop\n        /* \"#utility.yul\":2932:3325   */\n      swap4\n      swap3\n      pop\n      pop\n      pop\n      jump\t// out\n        /* \"#utility.yul\":3331:3391   */\n    tag_41:\n        /* \"#utility.yul\":3359:3362   */\n      0x00\n        /* \"#utility.yul\":3380:3385   */\n      dup2\n        /* \"#utility.yul\":3373:3385   */\n      swap1\n      pop\n        /* \"#utility.yul\":3331:3391   */\n      swap2\n      swap1\n      pop\n      jump\t// out\n        /* \"#utility.yul\":3397:3539   */\n    tag_42:\n        /* \"#utility.yul\":3447:3456   */\n      0x00\n        /* \"#utility.yul\":3480:3533   */\n      tag_87\n        /* \"#utility.yul\":3498:3532   */\n      tag_88\n        /* \"#utility.yul\":3507:3531   */\n      tag_89\n        /* \"#utility.yul\":3525:3530   */\n      dup5\n        /* \"#utility.yul\":3507:3531   */\n      tag_27\n      jump\t// in\n    tag_89:\n        /* \"#utility.yul\":3498:3532   */\n      tag_41\n      jump\t// in\n    tag_88:\n        /* \"#utility.yul\":3480:3533   */\n      tag_27\n      jump\t// in\n    tag_87:\n        /* \"#utility.yul\":3467:3533   */\n      swap1\n      pop\n        /* \"#utility.yul\":3397:3539   */\n      swap2\n      swap1\n      pop\n      jump\t// out\n        /* \"#utility.yul\":3545:3620   */\n    tag_43:\n        /* \"#utility.yul\":3588:3591   */\n      0x00\n        /* \"#utility.yul\":3609:3614   */\n      dup2\n        /* \"#utility.yul\":3602:3614   */\n      swap1\n      pop\n        /* \"#utility.yul\":3545:3620   */\n      swap2\n      swap1\n      pop\n      jump\t// out\n        /* \"#utility.yul\":3626:3895   */\n    tag_44:\n        /* \"#utility.yul\":3736:3775   */\n      tag_92\n        /* \"#utility.yul\":3767:3774   */\n      dup4\n        /* \"#utility.yul\":3736:3775   */\n      tag_42\n      jump\t// in\n    tag_92:\n        /* \"#utility.yul\":3797:3888   */\n      tag_93\n        /* \"#utility.yul\":3846:3887   */\n      tag_94\n        /* \"#utility.yul\":3870:3886   */\n      dup3\n        /* \"#utility.yul\":3846:3887   */\n      tag_43\n      jump\t// in\n    tag_94:\n        /* \"#utility.yul\":3838:3844   */\n      dup5\n        /* \"#utility.yul\":3831:3835   */\n      dup5\n        /* \"#utility.yul\":3825:3836   */\n      sload\n        /* \"#utility.yul\":3797:3888   */\n      tag_40\n      jump\t// in\n    tag_93:\n        /* \"#utility.yul\":3791:3795   */\n      dup3\n        /* \"#utility.yul\":3784:3889   */\n      sstore\n        /* \"#utility.yul\":3702:3895   */\n      pop\n        /* \"#utility.yul\":3626:3895   */\n      pop\n      pop\n      pop\n      jump\t// out\n        /* \"#utility.yul\":3901:3974   */\n    tag_45:\n        /* \"#utility.yul\":3946:3949   */\n      0x00\n        /* \"#utility.yul\":3901:3974   */\n      swap1\n      jump\t// out\n        /* \"#utility.yul\":3980:4169   */\n    tag_46:\n        /* \"#utility.yul\":4057:4089   */\n      tag_97\n      tag_45\n      jump\t// in\n    tag_97:\n        /* \"#utility.yul\":4098:4163   */\n      tag_98\n        /* \"#utility.yul\":4156:4162   */\n      dup2\n        /* \"#utility.yul\":4148:4154   */\n      dup5\n        /* \"#utility.yul\":4142:4146   */\n      dup5\n        /* \"#utility.yul\":4098:4163   */\n      tag_44\n      jump\t// in\n    tag_98:\n        /* \"#utility.yul\":4033:4169   */\n      pop\n        /* \"#utility.yul\":3980:4169   */\n      pop\n      pop\n      jump\t// out\n        /* \"#utility.yul\":4175:4361   */\n    tag_47:\n        /* \"#utility.yul\":4235:4355   */\n    tag_100:\n        /* \"#utility.yul\":4252:4255   */\n      dup2\n        /* \"#utility.yul\":4245:4250   */\n      dup2\n        /* \"#utility.yul\":4242:4256   */\n      lt\n        /* \"#utility.yul\":4235:4355   */\n      iszero\n      tag_102\n      jumpi\n        /* \"#utility.yul\":4306:4345   */\n      tag_103\n        /* \"#utility.yul\":4343:4344   */\n      0x00\n        /* \"#utility.yul\":4336:4341   */\n      dup3\n        /* \"#utility.yul\":4306:4345   */\n      tag_46\n      jump\t// in\n    tag_103:\n        /* \"#utility.yul\":4279:4280   */\n      0x01\n        /* \"#utility.yul\":4272:4277   */\n      dup2\n        /* \"#utility.yul\":4268:4281   */\n      add\n        /* \"#utility.yul\":4259:4281   */\n      swap1\n      pop\n        /* \"#utility.yul\":4235:4355   */\n      jump(tag_100)\n    tag_102:\n        /* \"#utility.yul\":4175:4361   */\n      pop\n      pop\n      jump\t// out\n        /* \"#utility.yul\":4367:4908   */\n    tag_48:\n        /* \"#utility.yul\":4467:4469   */\n      0x1f\n        /* \"#utility.yul\":4462:4465   */\n      dup3\n        /* \"#utility.yul\":4459:4470   */\n      gt\n        /* \"#utility.yul\":4456:4901   */\n      iszero\n      tag_105\n      jumpi\n        /* \"#utility.yul\":4501:4538   */\n      tag_106\n        /* \"#utility.yul\":4532:4537   */\n      dup2\n        /* \"#utility.yul\":4501:4538   */\n      tag_37\n      jump\t// in\n    tag_106:\n        /* \"#utility.yul\":4584:4613   */\n      tag_107\n        /* \"#utility.yul\":4602:4612   */\n      dup5\n        /* \"#utility.yul\":4584:4613   */\n      tag_38\n      jump\t// in\n    tag_107:\n        /* \"#utility.yul\":4574:4582   */\n      dup2\n        /* \"#utility.yul\":4570:4614   */\n      add\n        /* \"#utility.yul\":4767:4769   */\n      0x20\n        /* \"#utility.yul\":4755:4765   */\n      dup6\n        /* \"#utility.yul\":4752:4770   */\n      lt\n        /* \"#utility.yul\":4749:4798   */\n      iszero\n      tag_108\n      jumpi\n        /* \"#utility.yul\":4788:4796   */\n      dup2\n        /* \"#utility.yul\":4773:4796   */\n      swap1\n      pop\n        /* \"#utility.yul\":4749:4798   */\n    tag_108:\n        /* \"#utility.yul\":4811:4891   */\n      tag_109\n        /* \"#utility.yul\":4867:4889   */\n      tag_110\n        /* \"#utility.yul\":4885:4888   */\n      dup6\n        /* \"#utility.yul\":4867:4889   */\n      tag_38\n      jump\t// in\n    tag_110:\n        /* \"#utility.yul\":4857:4865   */\n      dup4\n        /* \"#utility.yul\":4853:4890   */\n      add\n        /* \"#utility.yul\":4840:4851   */\n      dup3\n        /* \"#utility.yul\":4811:4891   */\n      tag_47\n      jump\t// in\n    tag_109:\n        /* \"#utility.yul\":4471:4901   */\n      pop\n      pop\n        /* \"#utility.yul\":4456:4901   */\n    tag_105:\n        /* \"#utility.yul\":4367:4908   */\n      pop\n      pop\n      pop\n      jump\t// out\n        /* \"#utility.yul\":4914:5031   */\n    tag_49:\n        /* \"#utility.yul\":4968:4976   */\n      0x00\n        /* \"#utility.yul\":5018:5023   */\n      dup3\n        /* \"#utility.yul\":5012:5016   */\n      dup3\n        /* \"#utility.yul\":5008:5024   */\n      shr\n        /* \"#utility.yul\":4987:5024   */\n      swap1\n      pop\n        /* \"#utility.yul\":4914:5031   */\n      swap3\n      swap2\n      pop\n      pop\n      jump\t// out\n        /* \"#utility.yul\":5037:5206   */\n    tag_50:\n        /* \"#utility.yul\":5081:5087   */\n      0x00\n        /* \"#utility.yul\":5114:5165   */\n      tag_113\n        /* \"#utility.yul\":5162:5163   */\n      0x00\n        /* \"#utility.yul\":5158:5164   */\n      not\n        /* \"#utility.yul\":5150:5155   */\n      dup5\n        /* \"#utility.yul\":5147:5148   */\n      0x08\n        /* \"#utility.yul\":5143:5156   */\n      mul\n        /* \"#utility.yul\":5114:5165   */\n      tag_49\n      jump\t// in\n    tag_113:\n        /* \"#utility.yul\":5110:5166   */\n      not\n        /* \"#utility.yul\":5195:5199   */\n      dup1\n        /* \"#utility.yul\":5189:5193   */\n      dup4\n        /* \"#utility.yul\":5185:5200   */\n      and\n        /* \"#utility.yul\":5175:5200   */\n      swap2\n      pop\n        /* \"#utility.yul\":5088:5206   */\n      pop\n        /* \"#utility.yul\":5037:5206   */\n      swap3\n      swap2\n      pop\n      pop\n      jump\t// out\n        /* \"#utility.yul\":5211:5506   */\n    tag_51:\n        /* \"#utility.yul\":5287:5291   */\n      0x00\n        /* \"#utility.yul\":5433:5462   */\n      tag_115\n        /* \"#utility.yul\":5458:5461   */\n      dup4\n        /* \"#utility.yul\":5452:5456   */\n      dup4\n        /* \"#utility.yul\":5433:5462   */\n      tag_50\n      jump\t// in\n    tag_115:\n        /* \"#utility.yul\":5425:5462   */\n      swap2\n      pop\n        /* \"#utility.yul\":5495:5498   */\n      dup3\n        /* \"#utility.yul\":5492:5493   */\n      0x02\n        /* \"#utility.yul\":5488:5499   */\n      mul\n        /* \"#utility.yul\":5482:5486   */\n      dup3\n        /* \"#utility.yul\":5479:5500   */\n      or\n        /* \"#utility.yul\":5471:5500   */\n      swap1\n      pop\n        /* \"#utility.yul\":5211:5506   */\n      swap3\n      swap2\n      pop\n      pop\n      jump\t// out\n        /* \"#utility.yul\":5511:6909   */\n    tag_18:\n        /* \"#utility.yul\":5633:5676   */\n      tag_117\n        /* \"#utility.yul\":5672:5675   */\n      dup4\n        /* \"#utility.yul\":5667:5670   */\n      dup4\n        /* \"#utility.yul\":5633:5676   */\n      tag_34\n      jump\t// in\n    tag_117:\n        /* \"#utility.yul\":5741:5759   */\n      0xffffffffffffffff\n        /* \"#utility.yul\":5733:5739   */\n      dup2\n        /* \"#utility.yul\":5730:5760   */\n      gt\n        /* \"#utility.yul\":5727:5783   */\n      iszero\n      tag_118\n      jumpi\n        /* \"#utility.yul\":5763:5781   */\n      tag_119\n      tag_35\n      jump\t// in\n    tag_119:\n        /* \"#utility.yul\":5727:5783   */\n    tag_118:\n        /* \"#utility.yul\":5807:5845   */\n      tag_120\n        /* \"#utility.yul\":5839:5843   */\n      dup3\n        /* \"#utility.yul\":5833:5844   */\n      sload\n        /* \"#utility.yul\":5807:5845   */\n      tag_21\n      jump\t// in\n    tag_120:\n        /* \"#utility.yul\":5892:5958   */\n      tag_121\n        /* \"#utility.yul\":5951:5957   */\n      dup3\n        /* \"#utility.yul\":5943:5949   */\n      dup3\n        /* \"#utility.yul\":5937:5941   */\n      dup6\n        /* \"#utility.yul\":5892:5958   */\n      tag_48\n      jump\t// in\n    tag_121:\n        /* \"#utility.yul\":5985:5986   */\n      0x00\n        /* \"#utility.yul\":6014:6016   */\n      0x1f\n        /* \"#utility.yul\":6006:6012   */\n      dup4\n        /* \"#utility.yul\":6003:6017   */\n      gt\n        /* \"#utility.yul\":6031:6032   */\n      0x01\n        /* \"#utility.yul\":6026:6657   */\n      dup2\n      eq\n      tag_123\n      jumpi\n        /* \"#utility.yul\":6701:6702   */\n      0x00\n        /* \"#utility.yul\":6718:6724   */\n      dup5\n        /* \"#utility.yul\":6715:6799   */\n      iszero\n      tag_124\n      jumpi\n        /* \"#utility.yul\":6774:6783   */\n      dup3\n        /* \"#utility.yul\":6769:6772   */\n      dup8\n        /* \"#utility.yul\":6765:6784   */\n      add\n        /* \"#utility.yul\":6752:6785   */\n      calldataload\n        /* \"#utility.yul\":6743:6785   */\n      swap1\n      pop\n        /* \"#utility.yul\":6715:6799   */\n    tag_124:\n        /* \"#utility.yul\":6825:6892   */\n      tag_125\n        /* \"#utility.yul\":6885:6891   */\n      dup6\n        /* \"#utility.yul\":6878:6883   */\n      dup3\n        /* \"#utility.yul\":6825:6892   */\n      tag_51\n      jump\t// in\n    tag_125:\n        /* \"#utility.yul\":6819:6823   */\n      dup7\n        /* \"#utility.yul\":6812:6893   */\n      sstore\n        /* \"#utility.yul\":6674:6903   */\n      pop\n        /* \"#utility.yul\":5996:6903   */\n      jump(tag_122)\n        /* \"#utility.yul\":6026:6657   */\n    tag_123:\n        /* \"#utility.yul\":6078:6082   */\n      0x1f\n        /* \"#utility.yul\":6074:6083   */\n      not\n        /* \"#utility.yul\":6066:6072   */\n      dup5\n        /* \"#utility.yul\":6062:6084   */\n      and\n        /* \"#utility.yul\":6112:6148   */\n      tag_126\n        /* \"#utility.yul\":6143:6147   */\n      dup7\n        /* \"#utility.yul\":6112:6148   */\n      tag_37\n      jump\t// in\n    tag_126:\n        /* \"#utility.yul\":6170:6171   */\n      0x00\n        /* \"#utility.yul\":6184:6399   */\n    tag_127:\n        /* \"#utility.yul\":6198:6205   */\n      dup3\n        /* \"#utility.yul\":6195:6196   */\n      dup2\n        /* \"#utility.yul\":6192:6206   */\n      lt\n        /* \"#utility.yul\":6184:6399   */\n      iszero\n      tag_129\n      jumpi\n        /* \"#utility.yul\":6284:6293   */\n      dup5\n        /* \"#utility.yul\":6279:6282   */\n      dup10\n        /* \"#utility.yul\":6275:6294   */\n      add\n        /* \"#utility.yul\":6262:6295   */\n      calldataload\n        /* \"#utility.yul\":6254:6260   */\n      dup3\n        /* \"#utility.yul\":6247:6296   */\n      sstore\n        /* \"#utility.yul\":6335:6336   */\n      0x01\n        /* \"#utility.yul\":6327:6333   */\n      dup3\n        /* \"#utility.yul\":6323:6337   */\n      add\n        /* \"#utility.yul\":6313:6337   */\n      swap2\n      pop\n        /* \"#utility.yul\":6382:6384   */\n      0x20\n        /* \"#utility.yul\":6371:6380   */\n      dup6\n        /* \"#utility.yul\":6367:6385   */\n      add\n        /* \"#utility.yul\":6354:6385   */\n      swap5\n      pop\n        /* \"#utility.yul\":6221:6225   */\n      0x20\n        /* \"#utility.yul\":6218:6219   */\n      dup2\n        /* \"#utility.yul\":6214:6226   */\n      add\n        /* \"#utility.yul\":6209:6226   */\n      swap1\n      pop\n        /* \"#utility.yul\":6184:6399   */\n      jump(tag_127)\n    tag_129:\n        /* \"#utility.yul\":6427:6433   */\n      dup7\n        /* \"#utility.yul\":6418:6425   */\n      dup4\n        /* \"#utility.yul\":6415:6434   */\n      lt\n        /* \"#utility.yul\":6412:6598   */\n      iszero\n      tag_130\n      jumpi\n        /* \"#utility.yul\":6492:6501   */\n      dup5\n        /* \"#utility.yul\":6487:6490   */\n      dup10\n        /* \"#utility.yul\":6483:6502   */\n      add\n        /* \"#utility.yul\":6470:6503   */\n      calldataload\n        /* \"#utility.yul\":6535:6583   */\n      tag_131\n        /* \"#utility.yul\":6577:6581   */\n      0x1f\n        /* \"#utility.yul\":6569:6575   */\n      dup10\n        /* \"#utility.yul\":6565:6582   */\n      and\n        /* \"#utility.yul\":6554:6563   */\n      dup3\n        /* \"#utility.yul\":6535:6583   */\n      tag_50\n      jump\t// in\n    tag_131:\n        /* \"#utility.yul\":6527:6533   */\n      dup4\n        /* \"#utility.yul\":6520:6584   */\n      sstore\n        /* \"#utility.yul\":6435:6598   */\n      pop\n        /* \"#utility.yul\":6412:6598   */\n    tag_130:\n        /* \"#utility.yul\":6644:6645   */\n      0x01\n        /* \"#utility.yul\":6640:6641   */\n      0x02\n        /* \"#utility.yul\":6632:6638   */\n      dup9\n        /* \"#utility.yul\":6628:6642   */\n      mul\n        /* \"#utility.yul\":6624:6646   */\n      add\n        /* \"#utility.yul\":6618:6622   */\n      dup9\n        /* \"#utility.yul\":6611:6647   */\n      sstore\n        /* \"#utility.yul\":6033:6657   */\n      pop\n      pop\n      pop\n        /* \"#utility.yul\":5996:6903   */\n    tag_122:\n      pop\n        /* \"#utility.yul\":5608:6909   */\n      pop\n      pop\n      pop\n        /* \"#utility.yul\":5511:6909   */\n      pop\n      pop\n      pop\n      jump\t// out\n\n    auxdata: 0xa26469706673582212201dccecb315e5bfe4af18026ec34bd6d0c0662a013429fea66765e9f44989b0ad64736f6c63430008120033\n}\n",
				"bytecode": {
					"linkReferences": {},
					"object": "608060405234801561001057600080fd5b50610576806100206000396000f3fe608060405234801561001057600080fd5b50600436106100415760003560e01c80630b91271f1461004657806331018e411461005057806372a853b11461006e575b600080fd5b61004e61008c565b005b6100586100a1565b604051610065919061015d565b60405180910390f35b6100766100b6565b6040516100839190610208565b60405180910390f35b6000366000918261009e929190610470565b50565b60008080546100af90610293565b9050905090565b600080546100c390610293565b80601f01602080910402602001604051908101604052809291908181526020018280546100ef90610293565b801561013c5780601f106101115761010080835404028352916020019161013c565b820191906000526020600020905b81548152906001019060200180831161011f57829003601f168201915b505050505081565b6000819050919050565b61015781610144565b82525050565b6000602082019050610172600083018461014e565b92915050565b600081519050919050565b600082825260208201905092915050565b60005b838110156101b2578082015181840152602081019050610197565b60008484015250505050565b6000601f19601f8301169050919050565b60006101da82610178565b6101e48185610183565b93506101f4818560208601610194565b6101fd816101be565b840191505092915050565b6000602082019050818103600083015261022281846101cf565b905092915050565b600082905092915050565b7f4e487b7100000000000000000000000000000000000000000000000000000000600052604160045260246000fd5b7f4e487b7100000000000000000000000000000000000000000000000000000000600052602260045260246000fd5b600060028204905060018216806102ab57607f821691505b6020821081036102be576102bd610264565b5b50919050565b60008190508160005260206000209050919050565b60006020601f8301049050919050565b600082821b905092915050565b6000600883026103267fffffffffffffffffffffffffffffffffffffffffffffffffffffffffffffffff826102e9565b61033086836102e9565b95508019841693508086168417925050509392505050565b6000819050919050565b600061036d61036861036384610144565b610348565b610144565b9050919050565b6000819050919050565b61038783610352565b61039b61039382610374565b8484546102f6565b825550505050565b600090565b6103b06103a3565b6103bb81848461037e565b505050565b5b818110156103df576103d46000826103a8565b6001810190506103c1565b5050565b601f821115610424576103f5816102c4565b6103fe846102d9565b8101602085101561040d578190505b610421610419856102d9565b8301826103c0565b50505b505050565b600082821c905092915050565b600061044760001984600802610429565b1980831691505092915050565b60006104608383610436565b9150826002028217905092915050565b61047a838361022a565b67ffffffffffffffff81111561049357610492610235565b5b61049d8254610293565b6104a88282856103e3565b6000601f8311600181146104d757600084156104c5578287013590505b6104cf8582610454565b865550610537565b601f1984166104e5866102c4565b60005b8281101561050d578489013582556001820191506020850194506020810190506104e8565b8683101561052a5784890135610526601f891682610436565b8355505b6001600288020188555050505b5050505050505056fea26469706673582212201dccecb315e5bfe4af18026ec34bd6d0c0662a013429fea66765e9f44989b0ad64736f6c63430008120033",
					"opcodes": "PUSH1 0x80 PUSH1 0x40 MSTORE CALLVALUE DUP1 ISZERO PUSH2 0x10 JUMPI PUSH1 0x0 DUP1 REVERT JUMPDEST POP PUSH2 0x576 DUP1 PUSH2 0x20 PUSH1 0x0 CODECOPY PUSH1 0x0 RETURN INVALID PUSH1 0x80 PUSH1 0x40 MSTORE CALLVALUE DUP1 ISZERO PUSH2 0x10 JUMPI PUSH1 0x0 DUP1 REVERT JUMPDEST POP PUSH1 0x4 CALLDATASIZE LT PUSH2 0x41 JUMPI PUSH1 0x0 CALLDATALOAD PUSH1 0xE0 SHR DUP1 PUSH4 0xB91271F EQ PUSH2 0x46 JUMPI DUP1 PUSH4 0x31018E41 EQ PUSH2 0x50 JUMPI DUP1 PUSH4 0x72A853B1 EQ PUSH2 0x6E JUMPI JUMPDEST PUSH1 0x0 DUP1 REVERT JUMPDEST PUSH2 0x4E PUSH2 0x8C JUMP JUMPDEST STOP JUMPDEST PUSH2 0x58 PUSH2 0xA1 JUMP JUMPDEST PUSH1 0x40 MLOAD PUSH2 0x65 SWAP2 SWAP1 PUSH2 0x15D JUMP JUMPDEST PUSH1 0x40 MLOAD DUP1 SWAP2 SUB SWAP1 RETURN JUMPDEST PUSH2 0x76 PUSH2 0xB6 JUMP JUMPDEST PUSH1 0x40 MLOAD PUSH2 0x83 SWAP2 SWAP1 PUSH2 0x208 JUMP JUMPDEST PUSH1 0x40 MLOAD DUP1 SWAP2 SUB SWAP1 RETURN JUMPDEST PUSH1 0x0 CALLDATASIZE PUSH1 0x0 SWAP2 DUP3 PUSH2 0x9E SWAP3 SWAP2 SWAP1 PUSH2 0x470 JUMP JUMPDEST POP JUMP JUMPDEST PUSH1 0x0 DUP1 DUP1 SLOAD PUSH2 0xAF SWAP1 PUSH2 0x293 JUMP JUMPDEST SWAP1 POP SWAP1 POP SWAP1 JUMP JUMPDEST PUSH1 0x0 DUP1 SLOAD PUSH2 0xC3 SWAP1 PUSH2 0x293 JUMP JUMPDEST DUP1 PUSH1 0x1F ADD PUSH1 0x20 DUP1 SWAP2 DIV MUL PUSH1 0x20 ADD PUSH1 0x40 MLOAD SWAP1 DUP2 ADD PUSH1 0x40 MSTORE DUP1 SWAP3 SWAP2 SWAP1 DUP2 DUP2 MSTORE PUSH1 0x20 ADD DUP3 DUP1 SLOAD PUSH2 0xEF SWAP1 PUSH2 0x293 JUMP JUMPDEST DUP1 ISZERO PUSH2 0x13C JUMPI DUP1 PUSH1 0x1F LT PUSH2 0x111 JUMPI PUSH2 0x100 DUP1 DUP4 SLOAD DIV MUL DUP4 MSTORE SWAP2 PUSH1 0x20 ADD SWAP2 PUSH2 0x13C JUMP JUMPDEST DUP3 ADD SWAP2 SWAP1 PUSH1 0x0 MSTORE PUSH1 0x20 PUSH1 0x0 KECCAK256 SWAP1 JUMPDEST DUP2 SLOAD DUP2 MSTORE SWAP1 PUSH1 0x1 ADD SWAP1 PUSH1 0x20 ADD DUP1 DUP4 GT PUSH2 0x11F JUMPI DUP3 SWAP1 SUB PUSH1 0x1F AND DUP3 ADD SWAP2 JUMPDEST POP POP POP POP POP DUP2 JUMP JUMPDEST PUSH1 0x0 DUP2 SWAP1 POP SWAP2 SWAP1 POP JUMP JUMPDEST PUSH2 0x157 DUP2 PUSH2 0x144 JUMP JUMPDEST DUP3 MSTORE POP POP JUMP JUMPDEST PUSH1 0x0 PUSH1 0x20 DUP3 ADD SWAP1 POP PUSH2 0x172 PUSH1 0x0 DUP4 ADD DUP5 PUSH2 0x14E JUMP JUMPDEST SWAP3 SWAP2 POP POP JUMP JUMPDEST PUSH1 0x0 DUP2 MLOAD SWAP1 POP SWAP2 SWAP1 POP JUMP JUMPDEST PUSH1 0x0 DUP3 DUP3 MSTORE PUSH1 0x20 DUP3 ADD SWAP1 POP SWAP3 SWAP2 POP POP JUMP JUMPDEST PUSH1 0x0 JUMPDEST DUP4 DUP2 LT ISZERO PUSH2 0x1B2 JUMPI DUP1 DUP3 ADD MLOAD DUP2 DUP5 ADD MSTORE PUSH1 0x20 DUP2 ADD SWAP1 POP PUSH2 0x197 JUMP JUMPDEST PUSH1 0x0 DUP5 DUP5 ADD MSTORE POP POP POP POP JUMP JUMPDEST PUSH1 0x0 PUSH1 0x1F NOT PUSH1 0x1F DUP4 ADD AND SWAP1 POP SWAP2 SWAP1 POP JUMP JUMPDEST PUSH1 0x0 PUSH2 0x1DA DUP3 PUSH2 0x178 JUMP JUMPDEST PUSH2 0x1E4 DUP2 DUP6 PUSH2 0x183 JUMP JUMPDEST SWAP4 POP PUSH2 0x1F4 DUP2 DUP6 PUSH1 0x20 DUP7 ADD PUSH2 0x194 JUMP JUMPDEST PUSH2 0x1FD DUP2 PUSH2 0x1BE JUMP JUMPDEST DUP5 ADD SWAP2 POP POP SWAP3 SWAP2 POP POP JUMP JUMPDEST PUSH1 0x0 PUSH1 0x20 DUP3 ADD SWAP1 POP DUP2 DUP2 SUB PUSH1 0x0 DUP4 ADD MSTORE PUSH2 0x222 DUP2 DUP5 PUSH2 0x1CF JUMP JUMPDEST SWAP1 POP SWAP3 SWAP2 POP POP JUMP JUMPDEST PUSH1 0x0 DUP3 SWAP1 POP SWAP3 SWAP2 POP POP JUMP JUMPDEST PUSH32 0x4E487B7100000000000000000000000000000000000000000000000000000000 PUSH1 0x0 MSTORE PUSH1 0x41 PUSH1 0x4 MSTORE PUSH1 0x24 PUSH1 0x0 REVERT JUMPDEST PUSH32 0x4E487B7100000000000000000000000000000000000000000000000000000000 PUSH1 0x0 MSTORE PUSH1 0x22 PUSH1 0x4 MSTORE PUSH1 0x24 PUSH1 0x0 REVERT JUMPDEST PUSH1 0x0 PUSH1 0x2 DUP3 DIV SWAP1 POP PUSH1 0x1 DUP3 AND DUP1 PUSH2 0x2AB JUMPI PUSH1 0x7F DUP3 AND SWAP2 POP JUMPDEST PUSH1 0x20 DUP3 LT DUP2 SUB PUSH2 0x2BE JUMPI PUSH2 0x2BD PUSH2 0x264 JUMP JUMPDEST JUMPDEST POP SWAP2 SWAP1 POP JUMP JUMPDEST PUSH1 0x0 DUP2 SWAP1 POP DUP2 PUSH1 0x0 MSTORE PUSH1 0x20 PUSH1 0x0 KECCAK256 SWAP1 POP SWAP2 SWAP1 POP JUMP JUMPDEST PUSH1 0x0 PUSH1 0x20 PUSH1 0x1F DUP4 ADD DIV SWAP1 POP SWAP2 SWAP1 POP JUMP JUMPDEST PUSH1 0x0 DUP3 DUP3 SHL SWAP1 POP SWAP3 SWAP2 POP POP JUMP JUMPDEST PUSH1 0x0 PUSH1 0x8 DUP4 MUL PUSH2 0x326 PUSH32 0xFFFFFFFFFFFFFFFFFFFFFFFFFFFFFFFFFFFFFFFFFFFFFFFFFFFFFFFFFFFFFFFF DUP3 PUSH2 0x2E9 JUMP JUMPDEST PUSH2 0x330 DUP7 DUP4 PUSH2 0x2E9 JUMP JUMPDEST SWAP6 POP DUP1 NOT DUP5 AND SWAP4 POP DUP1 DUP7 AND DUP5 OR SWAP3 POP POP POP SWAP4 SWAP3 POP POP POP JUMP JUMPDEST PUSH1 0x0 DUP2 SWAP1 POP SWAP2 SWAP1 POP JUMP JUMPDEST PUSH1 0x0 PUSH2 0x36D PUSH2 0x368 PUSH2 0x363 DUP5 PUSH2 0x144 JUMP JUMPDEST PUSH2 0x348 JUMP JUMPDEST PUSH2 0x144 JUMP JUMPDEST SWAP1 POP SWAP2 SWAP1 POP JUMP JUMPDEST PUSH1 0x0 DUP2 SWAP1 POP SWAP2 SWAP1 POP JUMP JUMPDEST PUSH2 0x387 DUP4 PUSH2 0x352 JUMP JUMPDEST PUSH2 0x39B PUSH2 0x393 DUP3 PUSH2 0x374 JUMP JUMPDEST DUP5 DUP5 SLOAD PUSH2 0x2F6 JUMP JUMPDEST DUP3 SSTORE POP POP POP POP JUMP JUMPDEST PUSH1 0x0 SWAP1 JUMP JUMPDEST PUSH2 0x3B0 PUSH2 0x3A3 JUMP JUMPDEST PUSH2 0x3BB DUP2 DUP5 DUP5 PUSH2 0x37E JUMP JUMPDEST POP POP POP JUMP JUMPDEST JUMPDEST DUP2 DUP2 LT ISZERO PUSH2 0x3DF JUMPI PUSH2 0x3D4 PUSH1 0x0 DUP3 PUSH2 0x3A8 JUMP JUMPDEST PUSH1 0x1 DUP2 ADD SWAP1 POP PUSH2 0x3C1 JUMP JUMPDEST POP POP JUMP JUMPDEST PUSH1 0x1F DUP3 GT ISZERO PUSH2 0x424 JUMPI PUSH2 0x3F5 DUP2 PUSH2 0x2C4 JUMP JUMPDEST PUSH2 0x3FE DUP5 PUSH2 0x2D9 JUMP JUMPDEST DUP2 ADD PUSH1 0x20 DUP6 LT ISZERO PUSH2 0x40D JUMPI DUP2 SWAP1 POP JUMPDEST PUSH2 0x421 PUSH2 0x419 DUP6 PUSH2 0x2D9 JUMP JUMPDEST DUP4 ADD DUP3 PUSH2 0x3C0 JUMP JUMPDEST POP POP JUMPDEST POP POP POP JUMP JUMPDEST PUSH1 0x0 DUP3 DUP3 SHR SWAP1 POP SWAP3 SWAP2 POP POP JUMP JUMPDEST PUSH1 0x0 PUSH2 0x447 PUSH1 0x0 NOT DUP5 PUSH1 0x8 MUL PUSH2 0x429 JUMP JUMPDEST NOT DUP1 DUP4 AND SWAP2 POP POP SWAP3 SWAP2 POP POP JUMP JUMPDEST PUSH1 0x0 PUSH2 0x460 DUP4 DUP4 PUSH2 0x436 JUMP JUMPDEST SWAP2 POP DUP3 PUSH1 0x2 MUL DUP3 OR SWAP1 POP SWAP3 SWAP2 POP POP JUMP JUMPDEST PUSH2 0x47A DUP4 DUP4 PUSH2 0x22A JUMP JUMPDEST PUSH8 0xFFFFFFFFFFFFFFFF DUP2 GT ISZERO PUSH2 0x493 JUMPI PUSH2 0x492 PUSH2 0x235 JUMP JUMPDEST JUMPDEST PUSH2 0x49D DUP3 SLOAD PUSH2 0x293 JUMP JUMPDEST PUSH2 0x4A8 DUP3 DUP3 DUP6 PUSH2 0x3E3 JUMP JUMPDEST PUSH1 0x0 PUSH1 0x1F DUP4 GT PUSH1 0x1 DUP2 EQ PUSH2 0x4D7 JUMPI PUSH1 0x0 DUP5 ISZERO PUSH2 0x4C5 JUMPI DUP3 DUP8 ADD CALLDATALOAD SWAP1 POP JUMPDEST PUSH2 0x4CF DUP6 DUP3 PUSH2 0x454 JUMP JUMPDEST DUP7 SSTORE POP PUSH2 0x537 JUMP JUMPDEST PUSH1 0x1F NOT DUP5 AND PUSH2 0x4E5 DUP7 PUSH2 0x2C4 JUMP JUMPDEST PUSH1 0x0 JUMPDEST DUP3 DUP2 LT ISZERO PUSH2 0x50D JUMPI DUP5 DUP10 ADD CALLDATALOAD DUP3 SSTORE PUSH1 0x1 DUP3 ADD SWAP2 POP PUSH1 0x20 DUP6 ADD SWAP5 POP PUSH1 0x20 DUP2 ADD SWAP1 POP PUSH2 0x4E8 JUMP JUMPDEST DUP7 DUP4 LT ISZERO PUSH2 0x52A JUMPI DUP5 DUP10 ADD CALLDATALOAD PUSH2 0x526 PUSH1 0x1F DUP10 AND DUP3 PUSH2 0x436 JUMP JUMPDEST DUP4 SSTORE POP JUMPDEST PUSH1 0x1 PUSH1 0x2 DUP9 MUL ADD DUP9 SSTORE POP POP POP JUMPDEST POP POP POP POP POP POP POP JUMP INVALID LOG2 PUSH5 0x6970667358 0x22 SLT KECCAK256 SAR 0xCC 0xEC 0xB3 ISZERO 0xE5 0xBF 0xE4 0xAF XOR MUL PUSH15 0xC34BD6D0C0662A013429FEA66765E9 DELEGATECALL 0x49 DUP10 0xB0 0xAD PUSH5 0x736F6C6343 STOP ADDMOD SLT STOP CALLER "
				},
				"gasEstimates": {
					"creation": {
						"codeDepositCost": "279600",
						"executionCost": "318",
						"totalCost": "279918"
					},
					"external": {
						"getCallDataSize()": "2570",
						"lastCallData()": "infinite",
						"recordCallData()": "infinite"
					}
				},
				"methodIdentifiers": {
					"getCallDataSize()": "31018e41",
					"lastCallData()": "72a853b1",
					"recordCallData()": "0b91271f"
				}
			},
			"storageLayout": {
				"storage": [
					{
						"astId": 3,
						"contract": "Solidity/Solidity_Basics/4.DataExample.sol:DataExample",
						"label": "lastCallData",
						"offset": 0,
						"slot": "0",
						"type": "t_bytes_storage"
					}
				],
				"types": {
					"t_bytes_storage": {
						"encoding": "bytes",
						"label": "bytes",
						"numberOfBytes": "32"
					}
				}
			},
			"userdoc": {
				"kind": "user",
				"methods": {},
				"version": 1
			}
		}
	}
}