{
	"Solidity/Solidity_Basics/5.TimestampExample.sol": {
		"TimestampExample": {
			"abi": [
				{
					"inputs": [],
					"stateMutability": "nonpayable",
					"type": "constructor"
				},
				{
					"inputs": [],
					"name": "contractCreationTime",
					"outputs": [
						{
							"internalType": "uint256",
							"name": "",
							"type": "uint256"
						}
					],
					"stateMutability": "view",
					"type": "function"
				},
				{
					"inputs": [
						{
							"internalType": "uint256",
							"name": "durationInSeconds",
							"type": "uint256"
						}
					],
					"name": "hasDurationPassed",
					"outputs": [
						{
							"internalType": "bool",
							"name": "",
							"type": "bool"
						}
					],
					"stateMutability": "view",
					"type": "function"
				},
				{
					"inputs": [
						{
							"internalType": "uint256",
							"name": "releaseTime",
							"type": "uint256"
						}
					],
					"name": "isTimeLockExpired",
					"outputs": [
						{
							"internalType": "bool",
							"name": "",
							"type": "bool"
						}
					],
					"stateMutability": "view",
					"type": "function"
				}
			],
			"devdoc": {
				"kind": "dev",
				"methods": {},
				"version": 1
			},
			"evm": {
				"assembly": "    /* \"Solidity/Solidity_Basics/5.TimestampExample.sol\":59:681  contract TimestampExample {... */\n  mstore(0x40, 0x80)\n    /* \"Solidity/Solidity_Basics/5.TimestampExample.sol\":140:211  constructor() {... */\n  callvalue\n  dup1\n  iszero\n  tag_1\n  jumpi\n  0x00\n  dup1\n  revert\ntag_1:\n  pop\n    /* \"Solidity/Solidity_Basics/5.TimestampExample.sol\":188:203  block.timestamp */\n  timestamp\n    /* \"Solidity/Solidity_Basics/5.TimestampExample.sol\":165:185  contractCreationTime */\n  0x00\n    /* \"Solidity/Solidity_Basics/5.TimestampExample.sol\":165:203  contractCreationTime = block.timestamp */\n  dup2\n  swap1\n  sstore\n  pop\n    /* \"Solidity/Solidity_Basics/5.TimestampExample.sol\":59:681  contract TimestampExample {... */\n  dataSize(sub_0)\n  dup1\n  dataOffset(sub_0)\n  0x00\n  codecopy\n  0x00\n  return\nstop\n\nsub_0: assembly {\n        /* \"Solidity/Solidity_Basics/5.TimestampExample.sol\":59:681  contract TimestampExample {... */\n      mstore(0x40, 0x80)\n      callvalue\n      dup1\n      iszero\n      tag_1\n      jumpi\n      0x00\n      dup1\n      revert\n    tag_1:\n      pop\n      jumpi(tag_2, lt(calldatasize, 0x04))\n      shr(0xe0, calldataload(0x00))\n      dup1\n      0xbe0d0988\n      eq\n      tag_3\n      jumpi\n      dup1\n      0xcea3e530\n      eq\n      tag_4\n      jumpi\n      dup1\n      0xec653ca8\n      eq\n      tag_5\n      jumpi\n    tag_2:\n      0x00\n      dup1\n      revert\n        /* \"Solidity/Solidity_Basics/5.TimestampExample.sol\":296:464  function hasDurationPassed(uint256 durationInSeconds) public view returns (bool) {... */\n    tag_3:\n      tag_6\n      0x04\n      dup1\n      calldatasize\n      sub\n      dup2\n      add\n      swap1\n      tag_7\n      swap2\n      swap1\n      tag_8\n      jump\t// in\n    tag_7:\n      tag_9\n      jump\t// in\n    tag_6:\n      mload(0x40)\n      tag_10\n      swap2\n      swap1\n      tag_11\n      jump\t// in\n    tag_10:\n      mload(0x40)\n      dup1\n      swap2\n      sub\n      swap1\n      return\n        /* \"Solidity/Solidity_Basics/5.TimestampExample.sol\":92:127  uint256 public contractCreationTime */\n    tag_4:\n      tag_12\n      tag_13\n      jump\t// in\n    tag_12:\n      mload(0x40)\n      tag_14\n      swap2\n      swap1\n      tag_15\n      jump\t// in\n    tag_14:\n      mload(0x40)\n      dup1\n      swap2\n      sub\n      swap1\n      return\n        /* \"Solidity/Solidity_Basics/5.TimestampExample.sol\":547:678  function isTimeLockExpired(uint256 releaseTime) public view returns (bool) {... */\n    tag_5:\n      tag_16\n      0x04\n      dup1\n      calldatasize\n      sub\n      dup2\n      add\n      swap1\n      tag_17\n      swap2\n      swap1\n      tag_8\n      jump\t// in\n    tag_17:\n      tag_18\n      jump\t// in\n    tag_16:\n      mload(0x40)\n      tag_19\n      swap2\n      swap1\n      tag_11\n      jump\t// in\n    tag_19:\n      mload(0x40)\n      dup1\n      swap2\n      sub\n      swap1\n      return\n        /* \"Solidity/Solidity_Basics/5.TimestampExample.sol\":296:464  function hasDurationPassed(uint256 durationInSeconds) public view returns (bool) {... */\n    tag_9:\n        /* \"Solidity/Solidity_Basics/5.TimestampExample.sol\":371:375  bool */\n      0x00\n        /* \"Solidity/Solidity_Basics/5.TimestampExample.sol\":438:455  durationInSeconds */\n      dup2\n        /* \"Solidity/Solidity_Basics/5.TimestampExample.sol\":415:435  contractCreationTime */\n      sload(0x00)\n        /* \"Solidity/Solidity_Basics/5.TimestampExample.sol\":415:455  contractCreationTime + durationInSeconds */\n      tag_21\n      swap2\n      swap1\n      tag_22\n      jump\t// in\n    tag_21:\n        /* \"Solidity/Solidity_Basics/5.TimestampExample.sol\":396:411  block.timestamp */\n      timestamp\n        /* \"Solidity/Solidity_Basics/5.TimestampExample.sol\":396:455  block.timestamp >= contractCreationTime + durationInSeconds */\n      lt\n      iszero\n        /* \"Solidity/Solidity_Basics/5.TimestampExample.sol\":388:456  return (block.timestamp >= contractCreationTime + durationInSeconds) */\n      swap1\n      pop\n        /* \"Solidity/Solidity_Basics/5.TimestampExample.sol\":296:464  function hasDurationPassed(uint256 durationInSeconds) public view returns (bool) {... */\n      swap2\n      swap1\n      pop\n      jump\t// out\n        /* \"Solidity/Solidity_Basics/5.TimestampExample.sol\":92:127  uint256 public contractCreationTime */\n    tag_13:\n      sload(0x00)\n      dup2\n      jump\t// out\n        /* \"Solidity/Solidity_Basics/5.TimestampExample.sol\":547:678  function isTimeLockExpired(uint256 releaseTime) public view returns (bool) {... */\n    tag_18:\n        /* \"Solidity/Solidity_Basics/5.TimestampExample.sol\":616:620  bool */\n      0x00\n        /* \"Solidity/Solidity_Basics/5.TimestampExample.sol\":659:670  releaseTime */\n      dup2\n        /* \"Solidity/Solidity_Basics/5.TimestampExample.sol\":640:655  block.timestamp */\n      timestamp\n        /* \"Solidity/Solidity_Basics/5.TimestampExample.sol\":640:670  block.timestamp >= releaseTime */\n      lt\n      iszero\n        /* \"Solidity/Solidity_Basics/5.TimestampExample.sol\":633:670  return block.timestamp >= releaseTime */\n      swap1\n      pop\n        /* \"Solidity/Solidity_Basics/5.TimestampExample.sol\":547:678  function isTimeLockExpired(uint256 releaseTime) public view returns (bool) {... */\n      swap2\n      swap1\n      pop\n      jump\t// out\n        /* \"#utility.yul\":88:205   */\n    tag_25:\n        /* \"#utility.yul\":197:198   */\n      0x00\n        /* \"#utility.yul\":194:195   */\n      dup1\n        /* \"#utility.yul\":187:199   */\n      revert\n        /* \"#utility.yul\":334:411   */\n    tag_27:\n        /* \"#utility.yul\":371:378   */\n      0x00\n        /* \"#utility.yul\":400:405   */\n      dup2\n        /* \"#utility.yul\":389:405   */\n      swap1\n      pop\n        /* \"#utility.yul\":334:411   */\n      swap2\n      swap1\n      pop\n      jump\t// out\n        /* \"#utility.yul\":417:539   */\n    tag_28:\n        /* \"#utility.yul\":490:514   */\n      tag_40\n        /* \"#utility.yul\":508:513   */\n      dup2\n        /* \"#utility.yul\":490:514   */\n      tag_27\n      jump\t// in\n    tag_40:\n        /* \"#utility.yul\":483:488   */\n      dup2\n        /* \"#utility.yul\":480:515   */\n      eq\n        /* \"#utility.yul\":470:533   */\n      tag_41\n      jumpi\n        /* \"#utility.yul\":529:530   */\n      0x00\n        /* \"#utility.yul\":526:527   */\n      dup1\n        /* \"#utility.yul\":519:531   */\n      revert\n        /* \"#utility.yul\":470:533   */\n    tag_41:\n        /* \"#utility.yul\":417:539   */\n      pop\n      jump\t// out\n        /* \"#utility.yul\":545:684   */\n    tag_29:\n        /* \"#utility.yul\":591:596   */\n      0x00\n        /* \"#utility.yul\":629:635   */\n      dup2\n        /* \"#utility.yul\":616:636   */\n      calldataload\n        /* \"#utility.yul\":607:636   */\n      swap1\n      pop\n        /* \"#utility.yul\":645:678   */\n      tag_43\n        /* \"#utility.yul\":672:677   */\n      dup2\n        /* \"#utility.yul\":645:678   */\n      tag_28\n      jump\t// in\n    tag_43:\n        /* \"#utility.yul\":545:684   */\n      swap3\n      swap2\n      pop\n      pop\n      jump\t// out\n        /* \"#utility.yul\":690:1019   */\n    tag_8:\n        /* \"#utility.yul\":749:755   */\n      0x00\n        /* \"#utility.yul\":798:800   */\n      0x20\n        /* \"#utility.yul\":786:795   */\n      dup3\n        /* \"#utility.yul\":777:784   */\n      dup5\n        /* \"#utility.yul\":773:796   */\n      sub\n        /* \"#utility.yul\":769:801   */\n      slt\n        /* \"#utility.yul\":766:885   */\n      iszero\n      tag_45\n      jumpi\n        /* \"#utility.yul\":804:883   */\n      tag_46\n      tag_25\n      jump\t// in\n    tag_46:\n        /* \"#utility.yul\":766:885   */\n    tag_45:\n        /* \"#utility.yul\":924:925   */\n      0x00\n        /* \"#utility.yul\":949:1002   */\n      tag_47\n        /* \"#utility.yul\":994:1001   */\n      dup5\n        /* \"#utility.yul\":985:991   */\n      dup3\n        /* \"#utility.yul\":974:983   */\n      dup6\n        /* \"#utility.yul\":970:992   */\n      add\n        /* \"#utility.yul\":949:1002   */\n      tag_29\n      jump\t// in\n    tag_47:\n        /* \"#utility.yul\":939:1002   */\n      swap2\n      pop\n        /* \"#utility.yul\":895:1012   */\n      pop\n        /* \"#utility.yul\":690:1019   */\n      swap3\n      swap2\n      pop\n      pop\n      jump\t// out\n        /* \"#utility.yul\":1025:1115   */\n    tag_30:\n        /* \"#utility.yul\":1059:1066   */\n      0x00\n        /* \"#utility.yul\":1102:1107   */\n      dup2\n        /* \"#utility.yul\":1095:1108   */\n      iszero\n        /* \"#utility.yul\":1088:1109   */\n      iszero\n        /* \"#utility.yul\":1077:1109   */\n      swap1\n      pop\n        /* \"#utility.yul\":1025:1115   */\n      swap2\n      swap1\n      pop\n      jump\t// out\n        /* \"#utility.yul\":1121:1230   */\n    tag_31:\n        /* \"#utility.yul\":1202:1223   */\n      tag_50\n        /* \"#utility.yul\":1217:1222   */\n      dup2\n        /* \"#utility.yul\":1202:1223   */\n      tag_30\n      jump\t// in\n    tag_50:\n        /* \"#utility.yul\":1197:1200   */\n      dup3\n        /* \"#utility.yul\":1190:1224   */\n      mstore\n        /* \"#utility.yul\":1121:1230   */\n      pop\n      pop\n      jump\t// out\n        /* \"#utility.yul\":1236:1446   */\n    tag_11:\n        /* \"#utility.yul\":1323:1327   */\n      0x00\n        /* \"#utility.yul\":1361:1363   */\n      0x20\n        /* \"#utility.yul\":1350:1359   */\n      dup3\n        /* \"#utility.yul\":1346:1364   */\n      add\n        /* \"#utility.yul\":1338:1364   */\n      swap1\n      pop\n        /* \"#utility.yul\":1374:1439   */\n      tag_52\n        /* \"#utility.yul\":1436:1437   */\n      0x00\n        /* \"#utility.yul\":1425:1434   */\n      dup4\n        /* \"#utility.yul\":1421:1438   */\n      add\n        /* \"#utility.yul\":1412:1418   */\n      dup5\n        /* \"#utility.yul\":1374:1439   */\n      tag_31\n      jump\t// in\n    tag_52:\n        /* \"#utility.yul\":1236:1446   */\n      swap3\n      swap2\n      pop\n      pop\n      jump\t// out\n        /* \"#utility.yul\":1452:1570   */\n    tag_32:\n        /* \"#utility.yul\":1539:1563   */\n      tag_54\n        /* \"#utility.yul\":1557:1562   */\n      dup2\n        /* \"#utility.yul\":1539:1563   */\n      tag_27\n      jump\t// in\n    tag_54:\n        /* \"#utility.yul\":1534:1537   */\n      dup3\n        /* \"#utility.yul\":1527:1564   */\n      mstore\n        /* \"#utility.yul\":1452:1570   */\n      pop\n      pop\n      jump\t// out\n        /* \"#utility.yul\":1576:1798   */\n    tag_15:\n        /* \"#utility.yul\":1669:1673   */\n      0x00\n        /* \"#utility.yul\":1707:1709   */\n      0x20\n        /* \"#utility.yul\":1696:1705   */\n      dup3\n        /* \"#utility.yul\":1692:1710   */\n      add\n        /* \"#utility.yul\":1684:1710   */\n      swap1\n      pop\n        /* \"#utility.yul\":1720:1791   */\n      tag_56\n        /* \"#utility.yul\":1788:1789   */\n      0x00\n        /* \"#utility.yul\":1777:1786   */\n      dup4\n        /* \"#utility.yul\":1773:1790   */\n      add\n        /* \"#utility.yul\":1764:1770   */\n      dup5\n        /* \"#utility.yul\":1720:1791   */\n      tag_32\n      jump\t// in\n    tag_56:\n        /* \"#utility.yul\":1576:1798   */\n      swap3\n      swap2\n      pop\n      pop\n      jump\t// out\n        /* \"#utility.yul\":1804:1984   */\n    tag_33:\n        /* \"#utility.yul\":1852:1929   */\n      0x4e487b7100000000000000000000000000000000000000000000000000000000\n        /* \"#utility.yul\":1849:1850   */\n      0x00\n        /* \"#utility.yul\":1842:1930   */\n      mstore\n        /* \"#utility.yul\":1949:1953   */\n      0x11\n        /* \"#utility.yul\":1946:1947   */\n      0x04\n        /* \"#utility.yul\":1939:1954   */\n      mstore\n        /* \"#utility.yul\":1973:1977   */\n      0x24\n        /* \"#utility.yul\":1970:1971   */\n      0x00\n        /* \"#utility.yul\":1963:1978   */\n      revert\n        /* \"#utility.yul\":1990:2181   */\n    tag_22:\n        /* \"#utility.yul\":2030:2033   */\n      0x00\n        /* \"#utility.yul\":2049:2069   */\n      tag_59\n        /* \"#utility.yul\":2067:2068   */\n      dup3\n        /* \"#utility.yul\":2049:2069   */\n      tag_27\n      jump\t// in\n    tag_59:\n        /* \"#utility.yul\":2044:2069   */\n      swap2\n      pop\n        /* \"#utility.yul\":2083:2103   */\n      tag_60\n        /* \"#utility.yul\":2101:2102   */\n      dup4\n        /* \"#utility.yul\":2083:2103   */\n      tag_27\n      jump\t// in\n    tag_60:\n        /* \"#utility.yul\":2078:2103   */\n      swap3\n      pop\n        /* \"#utility.yul\":2126:2127   */\n      dup3\n        /* \"#utility.yul\":2123:2124   */\n      dup3\n        /* \"#utility.yul\":2119:2128   */\n      add\n        /* \"#utility.yul\":2112:2128   */\n      swap1\n      pop\n        /* \"#utility.yul\":2147:2150   */\n      dup1\n        /* \"#utility.yul\":2144:2145   */\n      dup3\n        /* \"#utility.yul\":2141:2151   */\n      gt\n        /* \"#utility.yul\":2138:2174   */\n      iszero\n      tag_61\n      jumpi\n        /* \"#utility.yul\":2154:2172   */\n      tag_62\n      tag_33\n      jump\t// in\n    tag_62:\n        /* \"#utility.yul\":2138:2174   */\n    tag_61:\n        /* \"#utility.yul\":1990:2181   */\n      swap3\n      swap2\n      pop\n      pop\n      jump\t// out\n\n    auxdata: 0xa2646970667358221220c61f001f25644cfebd1d7baa15b46b28edfce97b010ed6c9ed3e80850183d21c64736f6c63430008120033\n}\n",
				"bytecode": {
					"linkReferences": {},
					"object": "608060405234801561001057600080fd5b5042600081905550610252806100276000396000f3fe608060405234801561001057600080fd5b50600436106100415760003560e01c8063be0d098814610046578063cea3e53014610076578063ec653ca814610094575b600080fd5b610060600480360381019061005b919061012c565b6100c4565b60405161006d9190610174565b60405180910390f35b61007e6100de565b60405161008b919061019e565b60405180910390f35b6100ae60048036038101906100a9919061012c565b6100e4565b6040516100bb9190610174565b60405180910390f35b6000816000546100d491906101e8565b4210159050919050565b60005481565b6000814210159050919050565b600080fd5b6000819050919050565b610109816100f6565b811461011457600080fd5b50565b60008135905061012681610100565b92915050565b600060208284031215610142576101416100f1565b5b600061015084828501610117565b91505092915050565b60008115159050919050565b61016e81610159565b82525050565b60006020820190506101896000830184610165565b92915050565b610198816100f6565b82525050565b60006020820190506101b3600083018461018f565b92915050565b7f4e487b7100000000000000000000000000000000000000000000000000000000600052601160045260246000fd5b60006101f3826100f6565b91506101fe836100f6565b9250828201905080821115610216576102156101b9565b5b9291505056fea2646970667358221220c61f001f25644cfebd1d7baa15b46b28edfce97b010ed6c9ed3e80850183d21c64736f6c63430008120033",
					"opcodes": "PUSH1 0x80 PUSH1 0x40 MSTORE CALLVALUE DUP1 ISZERO PUSH2 0x10 JUMPI PUSH1 0x0 DUP1 REVERT JUMPDEST POP TIMESTAMP PUSH1 0x0 DUP2 SWAP1 SSTORE POP PUSH2 0x252 DUP1 PUSH2 0x27 PUSH1 0x0 CODECOPY PUSH1 0x0 RETURN INVALID PUSH1 0x80 PUSH1 0x40 MSTORE CALLVALUE DUP1 ISZERO PUSH2 0x10 JUMPI PUSH1 0x0 DUP1 REVERT JUMPDEST POP PUSH1 0x4 CALLDATASIZE LT PUSH2 0x41 JUMPI PUSH1 0x0 CALLDATALOAD PUSH1 0xE0 SHR DUP1 PUSH4 0xBE0D0988 EQ PUSH2 0x46 JUMPI DUP1 PUSH4 0xCEA3E530 EQ PUSH2 0x76 JUMPI DUP1 PUSH4 0xEC653CA8 EQ PUSH2 0x94 JUMPI JUMPDEST PUSH1 0x0 DUP1 REVERT JUMPDEST PUSH2 0x60 PUSH1 0x4 DUP1 CALLDATASIZE SUB DUP2 ADD SWAP1 PUSH2 0x5B SWAP2 SWAP1 PUSH2 0x12C JUMP JUMPDEST PUSH2 0xC4 JUMP JUMPDEST PUSH1 0x40 MLOAD PUSH2 0x6D SWAP2 SWAP1 PUSH2 0x174 JUMP JUMPDEST PUSH1 0x40 MLOAD DUP1 SWAP2 SUB SWAP1 RETURN JUMPDEST PUSH2 0x7E PUSH2 0xDE JUMP JUMPDEST PUSH1 0x40 MLOAD PUSH2 0x8B SWAP2 SWAP1 PUSH2 0x19E JUMP JUMPDEST PUSH1 0x40 MLOAD DUP1 SWAP2 SUB SWAP1 RETURN JUMPDEST PUSH2 0xAE PUSH1 0x4 DUP1 CALLDATASIZE SUB DUP2 ADD SWAP1 PUSH2 0xA9 SWAP2 SWAP1 PUSH2 0x12C JUMP JUMPDEST PUSH2 0xE4 JUMP JUMPDEST PUSH1 0x40 MLOAD PUSH2 0xBB SWAP2 SWAP1 PUSH2 0x174 JUMP JUMPDEST PUSH1 0x40 MLOAD DUP1 SWAP2 SUB SWAP1 RETURN JUMPDEST PUSH1 0x0 DUP2 PUSH1 0x0 SLOAD PUSH2 0xD4 SWAP2 SWAP1 PUSH2 0x1E8 JUMP JUMPDEST TIMESTAMP LT ISZERO SWAP1 POP SWAP2 SWAP1 POP JUMP JUMPDEST PUSH1 0x0 SLOAD DUP2 JUMP JUMPDEST PUSH1 0x0 DUP2 TIMESTAMP LT ISZERO SWAP1 POP SWAP2 SWAP1 POP JUMP JUMPDEST PUSH1 0x0 DUP1 REVERT JUMPDEST PUSH1 0x0 DUP2 SWAP1 POP SWAP2 SWAP1 POP JUMP JUMPDEST PUSH2 0x109 DUP2 PUSH2 0xF6 JUMP JUMPDEST DUP2 EQ PUSH2 0x114 JUMPI PUSH1 0x0 DUP1 REVERT JUMPDEST POP JUMP JUMPDEST PUSH1 0x0 DUP2 CALLDATALOAD SWAP1 POP PUSH2 0x126 DUP2 PUSH2 0x100 JUMP JUMPDEST SWAP3 SWAP2 POP POP JUMP JUMPDEST PUSH1 0x0 PUSH1 0x20 DUP3 DUP5 SUB SLT ISZERO PUSH2 0x142 JUMPI PUSH2 0x141 PUSH2 0xF1 JUMP JUMPDEST JUMPDEST PUSH1 0x0 PUSH2 0x150 DUP5 DUP3 DUP6 ADD PUSH2 0x117 JUMP JUMPDEST SWAP2 POP POP SWAP3 SWAP2 POP POP JUMP JUMPDEST PUSH1 0x0 DUP2 ISZERO ISZERO SWAP1 POP SWAP2 SWAP1 POP JUMP JUMPDEST PUSH2 0x16E DUP2 PUSH2 0x159 JUMP JUMPDEST DUP3 MSTORE POP POP JUMP JUMPDEST PUSH1 0x0 PUSH1 0x20 DUP3 ADD SWAP1 POP PUSH2 0x189 PUSH1 0x0 DUP4 ADD DUP5 PUSH2 0x165 JUMP JUMPDEST SWAP3 SWAP2 POP POP JUMP JUMPDEST PUSH2 0x198 DUP2 PUSH2 0xF6 JUMP JUMPDEST DUP3 MSTORE POP POP JUMP JUMPDEST PUSH1 0x0 PUSH1 0x20 DUP3 ADD SWAP1 POP PUSH2 0x1B3 PUSH1 0x0 DUP4 ADD DUP5 PUSH2 0x18F JUMP JUMPDEST SWAP3 SWAP2 POP POP JUMP JUMPDEST PUSH32 0x4E487B7100000000000000000000000000000000000000000000000000000000 PUSH1 0x0 MSTORE PUSH1 0x11 PUSH1 0x4 MSTORE PUSH1 0x24 PUSH1 0x0 REVERT JUMPDEST PUSH1 0x0 PUSH2 0x1F3 DUP3 PUSH2 0xF6 JUMP JUMPDEST SWAP2 POP PUSH2 0x1FE DUP4 PUSH2 0xF6 JUMP JUMPDEST SWAP3 POP DUP3 DUP3 ADD SWAP1 POP DUP1 DUP3 GT ISZERO PUSH2 0x216 JUMPI PUSH2 0x215 PUSH2 0x1B9 JUMP JUMPDEST JUMPDEST SWAP3 SWAP2 POP POP JUMP INVALID LOG2 PUSH5 0x6970667358 0x22 SLT KECCAK256 0xC6 0x1F STOP 0x1F 0x25 PUSH5 0x4CFEBD1D7B 0xAA ISZERO 0xB4 PUSH12 0x28EDFCE97B010ED6C9ED3E80 DUP6 ADD DUP4 0xD2 SHR PUSH5 0x736F6C6343 STOP ADDMOD SLT STOP CALLER "
				},
				"gasEstimates": {
					"creation": {
						"codeDepositCost": "118800",
						"executionCost": "22278",
						"totalCost": "141078"
					},
					"external": {
						"contractCreationTime()": "2429",
						"hasDurationPassed(uint256)": "infinite",
						"isTimeLockExpired(uint256)": "638"
					}
				},
				"methodIdentifiers": {
					"contractCreationTime()": "cea3e530",
					"hasDurationPassed(uint256)": "be0d0988",
					"isTimeLockExpired(uint256)": "ec653ca8"
				}
			},
			"storageLayout": {
				"storage": [
					{
						"astId": 3,
						"contract": "Solidity/Solidity_Basics/5.TimestampExample.sol:TimestampExample",
						"label": "contractCreationTime",
						"offset": 0,
						"slot": "0",
						"type": "t_uint256"
					}
				],
				"types": {
					"t_uint256": {
						"encoding": "inplace",
						"label": "uint256",
						"numberOfBytes": "32"
					}
				}
			},
			"userdoc": {
				"kind": "user",
				"methods": {},
				"version": 1
			}
		}
	}
}